:1000000045C0000061C000005FC000005DC000008E
:100010005BC0000059C0000057C0000055C0000080
:1000200053C00000D1C100004FC0000054C1000007
:100030004BC0000049C00000A7C1000045C000003F
:1000400043C0000041C00000B0C100003DC000003E
:100050003BC0000039C0000037C0000035C00000C0
:1000600033C0000031C000002FC000002DC00000D0
:100070002BC0000029C0000027C0000025C00000E0
:1000800023C0000021C000001FC0000011241FBEBB
:10009000CFEFD0E1DEBFCDBF11E0A0E0B1E0E0E9FD
:1000A000F3E200E00BBF02C007900D92AC3DB10738
:1000B000D9F72DE0ACEDB1E001C01D92AE34B2072E
:1000C000E1F703D00C94C6119BCF0E94F109EC011B
:1000D000F8D1CE0137D586E991E09F938F937DD0FB
:1000E00088EE93E03BD30F900F9061E070E0CE017B
:1000F0007BD7CE010E94A809F8CFDE9A90E02ED3DC
:10010000DE988BB3807F8BBB0895CF93C82FDC988C
:100110008BB39C2F92959F70892B8BBB82E0EDDF78
:100120008BB3CF70C82BCBBB82E0E7DFDC9ACF91DB
:10013000089581E0EADF81E090E010C382E0E5CF3E
:100140008FEF8ABB83E08BBBDE9A81E090E006D321
:10015000DE9885E090E002D3DE9A81E090E0FED266
:10016000DE98DE9A81E090E0F9D2DE9882E08BBBE7
:1001700081E0C3DF8BB38BBB81E0BFDF8BB38E60CD
:100180008BBB81E0BADF8BB38BBB81E0B6DF8BB377
:1001900086608BBB81E0B1DF8BB38BBB81E0ADDFD1
:1001A000D89A81E0AADFDC9AC9CF80ECAECF84E98F
:1001B000ACCF84EDAACFCF93C82F8BB39C2F929551
:1001C0009F70892B8BBB81E098DF8BB3CF70C82BDE
:1001D000CBBB81E092DFCF910895CF92DF92EF9277
:1001E000FF920F931F93CF93DF93CDB7DEB7C15527
:1001F000D1090FB6F894DEBF0FBECDBFFE01E45AA1
:10020000FF4F419151912E2F3F2F61E570E0CE01BC
:1002100001960E94F60EBE016F5F7F4F8CED91E05C
:100220000E94E60E282F392F232B09F444C0BE016B
:100230006F5F7F4F8CED91E00E94EF0E7ADFCC2450
:10024000C394D12CCC0EDD1E00E010E00F2EF4E1A3
:10025000EF2EF12CF02D27C08A3051F4C801B701E0
:100260000E94560D9701281B390B020F131F03C064
:10027000A2DF0F5F1F4FC801B7010E94560D892BE7
:1002800091F4C801B7010E94560D6230710541F02A
:100290006330710539F06130710529F486DF03C0E0
:1002A00086DF01C086DFF60181916F01882319F096
:1002B000003511058CF2CF5ADF4F0FB6F894DEBF30
:1002C0000FBECDBFDF91CF911F910F91FF90EF90A7
:1002D000DF90CF9008951F920F920FB60F921124C6
:1002E0002F933F934F935F938F939F93AF93BF93BE
:1002F0008091400290914102892B71F186B597B5AA
:1003000090933F0280933E0280913D0240913E02D5
:1003100050913F02209140023091410290E0A0E0D4
:10032000B0E0DC0199278827840F951FA11DB11D1E
:10033000821B930BA109B1098093390290933A0271
:10034000A0933B02B0933C021092410210924002F3
:100350008EB580648EBD0BC086B597B59093410273
:100360008093400210923D028EB58F7B8EBDBF916F
:10037000AF919F918F915F914F913F912F910F90EE
:100380000FBE0F901F9018951F920F920FB60F92ED
:1003900011248F9380913D028F5F80933D028F9156
:1003A0000F900FBE0F901F9018951F920F920FB6CF
:1003B0000F9211248F938CB18093AE038F910F9085
:1003C0000FBE0F901F9018951F920F920FB60F92AD
:1003D00011248F939F9380919D0790919E07019682
:1003E00090939E0780939D079F918F910F900FBED2
:1003F0000F901F90189580EC87B9399A87E886B9D5
:1004000008959093900089B982E08BB98EE0809333
:10041000950088E18AB908951FBC83EC8EBD1092C7
:100420007A00089583EE80938B0080911201909161
:100430001301892B21F08AED80938A0003C08BED94
:1004400080938A0010928C0080E280937D00149A41
:100450008091120190911301892B91F180910C01EF
:1004600090910D01880F991F880F991F880F991F70
:1004700090930D0180930C0180910E0190910F01DA
:10048000880F991F880F991F880F991F90930F014C
:1004900080930E0120E030E040E051E460910801DB
:1004A0007091090180910A0190910B010E94F30C57
:1004B000609308017093090180930A0190930B01E6
:1004C0000895CF93DF93EC013BDEACDFA5DF93DF34
:1004D00081E290E096DFCE010E940F0BCE010E94D8
:1004E0000F0BDF91CF910895369A3699FECF24B144
:1004F00035B1932F80E0AC01420F511D9A01842F3A
:10050000932F0895EF92FF920F931F93CF93DF9352
:100510007C01EB016AE67FEF8AE69FEFA6D71C1607
:100520001D06D4F48EE862D783E160D7D5D78093D7
:10053000AF031092B003D0D78093740A1091AF0329
:1005400000E09801280F311DF70135872487C20F7D
:10055000D31F1C161D0634F360E070E080E090E0CD
:1005600084D7DF91CF911F910F91FF90EF90089565
:1005700010929E0710929D07811106C08BE085BDE9
:1005800087B7806887BF0FC0813031F489E085BDAF
:1005900087B7806887BF07C0883029F48AE085BDA7
:1005A00087B7806887BF7894089587B78F7787BFAC
:1005B00085B58F7785BD0895CF93DF93EC0180E1FA
:1005C00083BD10929E0710929D0781E0D1DF20919C
:1005D0009D0730919E072C173D07C8F3E6DFDF919A
:1005E000CF9108958C9A949A88E290E0E5DF9498F0
:1005F0008C9878940895F6DF06B605FEFDCF86B791
:10060000806286BF86B597B5909341028093400281
:1006100010923D028EB58F7B8EBD06B605FC04C0E0
:1006200086B706B605FEFCCF86B597B590933F0218
:1006300080933E0280913D0240913E0250913F02E4
:10064000209140023091410290E0A0E0B0E0DC0156
:1006500099278827840F951FA11DB11D821B930B1D
:10066000A109B1098093390290933A02A0933B0209
:10067000B0933C028EB580648EBD86B7806286BF23
:100680006091390270913A0280913B0290913C0254
:100690000E943D0C20E030ED44E057E40E94F30C52
:1006A00020E034E244EF58E40E94A40B20E030E064
:1006B00040E751E4E0D760933502709336028093AF
:1006C00037029093380210923D0282E390E074DF8B
:1006D00020E030E048E453E4609135027091360246
:1006E00080913702909138020E94EF0C18164CF559
:1006F00080912F029091300203978CF0109230027B
:1007000010922F0280E090E8A7E4B3E480933502D2
:1007100090933602A0933702B093380212C06BDF79
:1007200060933502709336028093370290933802BB
:1007300080912F0290913002019690933002809325
:100740002F025091350240913602309137022091AC
:100750003802652F742F832F922F0895CF93DF9344
:10076000EC018AEF83BD10929E0710929D0780E0F6
:10077000FFDE20919D0730919E072C173D07C8F39F
:1007800014DFDF91CF910895BC0180911001909109
:1007900011019093870080938600882777FD8095CC
:1007A000982F0E943F0C20E030EA4CE555E40E946F
:1007B000F30C20E030E044E353E4C6D720E030E01F
:1007C00045EA54E459D70E940C0C6093420270939E
:1007D0004302862F972F9093850080938400809109
:1007E0007C0084FF05C0ECE7F0E080818F7E808391
:1007F00080911401909115012091420230914302A1
:10080000821B930B1AF491958195910965E070E034
:100810000E94560D7093B2036093B10380917C00E7
:1008200083FF0AC0ECE7F0E08081877F80838091BE
:10083000B1039091B20392DF809142029091430202
:1008400080931401909315010895CF93DF934CDEAC
:10085000EC0187E190E082DF47DEC80FD91F87E116
:1008600090E07CDFCE0196958795813023E092075A
:10087000C0F09C01220F331F220F331F220F331FA2
:10088000281B390B3551A1E8B0E80E94690D880F8B
:10089000892F881F990B919567E070E0681B790B91
:1008A0002CC19C012D58324023373105C0F48C589F
:1008B000924C9C01220F331F220F331FAFE9B6E485
:1008C0000E94690D96958795929582958F708927DC
:1008D0009F7089276AE070E0681B790B0EC19C014C
:1008E0002752324025363105C8F48652924C9C017D
:1008F000220F331F220F331FA1EAB0EA0E94690DB5
:100900000024880F991F001C880F991F001C892F35
:10091000902D6DE070E0681B790BEFC09C01215DAC
:10092000314025353105E0F49C01220F331F220FA1
:10093000331F820F931F9C0120513940A3E8BEEB67
:100940000E94690D0024880F991F001C880F991FB1
:10095000001C892F902D61E170E0681B790BCDC0E0
:100960009C012A5931402633310500F58959914CB3
:10097000AC01440F551F440F551F9A01A5EEB9E273
:100980000E94690D481B590B9A0136952795820FD5
:10099000931F96958795929582958F7089279F7062
:1009A000892764E170E0681B790BA7C09C0126577A
:1009B000314023323105D8F49C01220F331F220F1E
:1009C000331F820F931F9C0129543740AFE8B3EEC9
:1009D0000E94690D96958795929582958F708927CB
:1009E0009F70892768E170E0681B790B86C09C01C5
:1009F000285331402D333105E0F49C01220F331F81
:100A0000220F331F220F331F280F391F2F5E3A404A
:100A100036952795A1E1B2E40E94690D96958795D8
:100A2000969587959695879560E270E0681B790B9F
:100A300064C09C01215F310926343105F0F49C012A
:100A4000220F331F220F331F220F331F820F931FDA
:100A50009C0120573840A3ECB6EE0E94690D00249B
:100A6000880F991F001C880F991F001C892F902D3B
:100A700069E270E0681B790B40C09C01205D310980
:100A800020323105E8F49C01220F331F220F331F5F
:100A9000220F331F820F931F9C0127543740AFE36F
:100AA000B8EF0E94690D96958795929582958F7003
:100AB00089279F70892762E370E0681B790B1DC04E
:100AC0008F3C9105C0F44FE1489F9001499F300D44
:100AD0001124245D3441AFE0BAEEFBD7969587959B
:100AE000929582958F7089279F70892760E570E0C5
:100AF000681B790B02C060E070E080912D0290913C
:100B00002E02019690932E0280932D0203977CF47F
:100B100080E090E0B2D620E030E040EC50E4ACD58C
:100B200080D66739710528F090DEBC0102C065E906
:100B300070E010922E0210922D02862F972FDF91D7
:100B4000CF9108958F929F92AF92BF92CF92DF92F2
:100B5000EF92FF920F931F93CF93DF93CDB7DEB742
:100B60002F970FB6F894DEBF0FBECDBF6C018091FA
:100B70009B00882344F4ACE9B0E0EBE9F0E08C9111
:100B800080818823E4F38EE831D487E02FD48EE18E
:100B900090E012DDA1D4F601908180FB90F9908362
:100BA0008EE824D482E022D48E010F5F1F4F4801CB
:100BB0005E01F7E0AF0EB11C78018ED4F70181938E
:100BC0007F01EA15FB05C9F78EE190E0F5DC9B811A
:100BD00080E02C81820F911DF601958784879D818D
:100BE00080E02E81820F911D978786878EE8FED345
:100BF00084E0FCD37401FEE0EF0EF11C6DD4F8012B
:100C000081938F01EE15FF05C9F78EE190E0D4DCEA
:100C1000998180E02A81820F911DF601938F828F46
:100C20009B8180E02C81820F911D958F848F9D8107
:100C300080E02E81820F911D978F868F9F8180E0AB
:100C40002885820F911D91A380A3998580E02A8534
:100C5000820F911D93A382A38EE190E07FDD2F96FA
:100C60000FB6F894DEBF0FBECDBFDF91CF911F91BD
:100C70000F91FF90EF90DF90CF90BF90AF909F903B
:100C80008F900895CF92DF92EF92FF920F931F9370
:100C9000CF93DF938C01EB016EEC7FEF82E390E06A
:100CA000E4D3BE01882777FD8095982FE8D528E406
:100CB00031EE4AE35FE397D6F62EE72ED82EC92E03
:100CC00020E030E0A9018BD61816B4F4C0E0D0E0E3
:100CD000C80138DFF80186859785C80FD91FBE0186
:100CE000882777FD8095982FCAD52F2D3E2D4D2D25
:100CF0005C2D26D5882364F360E070E080E090E00E
:100D0000B4D3DF91CF911F910F91FF90EF90DF90BF
:100D1000CF900895CF92DF92EF92FF920F931F939F
:100D2000CF93DF938C01EB0162E370E08EEC9FEFD9
:100D30009CD3662777276C1B7D0B882777FD8095D2
:100D4000982F9DD528E431EE4AE35FE34CD6F62E8A
:100D5000E72ED82EC92E20E030E0A901F1D4882357
:100D6000B4F4C0E0D0E0C801EDDEF80186859785D7
:100D7000C80FD91FBE01882777FD8095982F7FD592
:100D80002F2D3E2D4D2D5C2D2AD6181664F360E0D4
:100D900070E080E090E069D3DF91CF911F910F91D7
:100DA000FF90EF90DF90CF9008956F927F929F9287
:100DB000AF92BF92CF92DF92EF92FF921F93CF93A9
:100DC000DF93CDB7DEB7C058D1090FB6F894DEBFB8
:100DD0000FBECDBF80E1E6E1F1E0DE0111960190AA
:100DE0000D928A95E1F780E1E6E2F1E0DE015196AD
:100DF00001900D928A95E1F780E1E6E3F1E0DE01F2
:100E0000919601900D928A95E1F780E1E6E4F1E098
:100E1000DE01D19601900D928A95E1F780E1E6E539
:100E2000F1E0DE01AF5BBF4F01900D928A95E1F7D3
:100E300080E1E6E6F1E0DE01AF5ABF4F01900D928E
:100E40008A95E1F780E1E6E7F1E0DE01AF59BF4FB7
:100E500001900D928A95E1F780E1E6E8F1E0DE018C
:100E6000AF58BF4F01900D928A95E1F79E012F5E1A
:100E70003F4FAE014F5F5F4F60E170E080E090E078
:100E8000C5D29E012F5C3F4FAE014F5D5F4F60E1C9
:100E900070E081E090E0BAD29E012F5A3F4FAE0140
:100EA0004F5B5F4F60E170E082E090E0AFD29E0167
:100EB0002F583F4FAE014F595F4F60E170E083E024
:100EC00090E0A4D280E090E099D280E496E046DC05
:100ED00081E090E093D280E496E040DC82E090E014
:100EE0008DD280E496E03ADC83E090E087D20F2E4A
:100EF000F2E36F2E712CF02D80E090E0AA24AA94EA
:100F0000C12CD12C912CEE24E394F12C892B71F47B
:100F1000192D2A2D412F61E082E0BED285E090E0BC
:100F20001DDC1F5F1F3FA9F7C7010CC0BA2C2A2D7B
:100F30004B2D61E082E0B0D285E090E00FDCBA9406
:100F4000B1F7C60121E0621A710801F7C058DF4FFE
:100F50000FB6F894DEBF0FBECDBFDF91CF911F91CA
:100F6000FF90EF90DF90CF90BF90AF909F907F90D9
:100F70006F900895CF935F9BFECFCCB11F92CF931C
:100F80002CE931E03F932F9328D90F900F900F90C9
:100F90000F908C2FCF9108955D9BFECF982F9F705F
:100FA0009CB95D9BFECF82958F708CB908950F938D
:100FB0001F93CF93DF931616170654F4C82FD92F1B
:100FC0008E01060F171F8991E7DFC017D107D9F7E8
:100FD00082EA91E09F938F9300D90F900F90DF9159
:100FE000CF911F910F9108951F93CF93DF93DC0151
:100FF00083E78093B303E4EBF3E02FEB33E011924C
:10100000E217F307E1F78C9181FF05C0E4EBF3E011
:101010008081816080838C9180FF05C0E4EBF3E0E8
:101020008081826080835C962D913C915D97C9019F
:101030000A978F34924028F0E4EBF3E080818460DB
:1010400080835E96ED91FC915F97CF010A978F3474
:10105000924028F0C4EBD3E0888188608883909622
:101060004D915C919197CA010A978F34924028F074
:10107000C4EBD3E088818061888392968D919C91A6
:101080009397EC012A97CF34D24028F0C4EBD3E0F9
:10109000188110621883CC91C3FF05C0C4EBD3E064
:1010A000188110641883CC91C4FF05C0C4EBD3E051
:1010B000188110681883AC91A2FF05C0A5EBB3E0BE
:1010C000CC91C160CC93E093B703F093B603409307
:1010D000B9035093B8032093BB033093BA038093B2
:1010E000BD039093BC03672B29F06CE070E083EBA9
:1010F00093E05DDFDF91CF911F9108956F927F9212
:101100008F929F92AF92BF92CF92DF92EF92FF9217
:101110000F931F93CF93DF93CDB7DEB7C65BD10993
:101120000FB6F894DEBF0FBECDBF84E689830F2EC5
:10113000FFE98F2EF7E09F2EF02D0F2EF4E4EF2E17
:10114000F2E0FF2EF02D5E0182E0A80EB11C00E05F
:1011500010E00F2EFEEACF2EF1E0DF2EF02D0F2E45
:10116000F4E66F2E712CF02DC8010EDB1F930F9348
:10117000DF92CF9232D83FDAF40161937193819379
:1011800091934F010F900F900F900F9020E030E05F
:1011900048E452E4D5D288232CF457DBF70191833D
:1011A000808303C0F701718260820F5F1F4FF701D8
:1011B0008081F2E0EF0EF11CF50181935F01053BA8
:1011C000110591F666EB70E0CE010196F0DECA548F
:1011D000DF4F0FB6F894DEBF0FBECDBFDF91CF91CA
:1011E0001F910F91FF90EF90DF90CF90BF90AF9045
:1011F0009F908F907F906F9008956F927F928F92C3
:101200009F92AF92BF92CF92DF92EF92FF920F9395
:101210001F93CF93DF938C01EB01CA011C161D06AF
:101220003CF427EB31E0309307012093060106C020
:101230002FEB31E03093070120930601DD235CF4AE
:101240009C01992324F422273327281B390B882754
:101250009927821B930BBC0108D16E01DD2324F476
:10126000CC24DD24CC1ADD0A1C141D040CF059C05A
:10127000C0E0D0E00F2EF5EBAF2EF3E0BF2EF02D47
:101280000F2EF4EB8F2EF3E09F2EF02D0F2EF7ECA8
:101290006F2EF1E07F2EF02DC80154DCF80184851B
:1012A000958599231CF4919581959109C80FD91FB3
:1012B00060E070E0C80198DEF501F080E12CF401F7
:1012C00080819701282BC901892BA9F060E070E08B
:1012D00080E090E0CAD081E090E090933202809369
:1012E00031026CE070E083EB93E061DE62E370E07A
:1012F000C80108D916C0DF93CF93809107018F935F
:10130000809106018F937F926F920E94ED000F9063
:101310000F900F900F900F900F90CC15DD050CF4EF
:10132000BBCF60E070E080E090E09FD0DF91CF9194
:101330001F910F91FF90EF90DF90CF90BF90AF90F3
:101340009F908F907F906F90089546E950E055CF21
:10135000CF93DF93EC010EDE8A3569F420913302DE
:101360003091340281E090E0821B930B9093340221
:101370008093330233C02091330230913402232B07
:1013800069F58D3451F138F4863489F08C34F1F0FC
:10139000823421F511C08235A1F08335E1F0813529
:1013A000E9F46CE070E083EB93E001DE17C064E6E3
:1013B00070E0CE01CADF12C064E670E0CE01A2D8B0
:1013C0000DC065E070E0CE01A5DC08C065E070E00E
:1013D000CE0158DC03C092DE01C0E7DCDF91CF9183
:1013E000089564E370E081E090E093C3EBE9F0E0FE
:1013F000908195FFFDCF80939C000895CF93C82FD7
:101400008DE8F4DF8C2FF2DFCF910895CF92DF9239
:10141000EF92FF920F931F93CF93DF93C82F7B011F
:10142000042F152FC22ED32E8CE8E0DF8C2FDEDFA9
:101430008E2DDCDF1E141F047CF4C02FD12F0C2D49
:101440001D2DEC0EFD1E8991D1DFF80181918F01D8
:10145000CDDFCE15DF05B9F7DF91CF911F910F9149
:10146000FF90EF90DF90CF9008950F931F93CF934D
:10147000DF93182F092FC62FD72F81E9B7DF802FD1
:10148000B5DF812FB3DF8D2FB1DF8C2FAFDFDF9181
:10149000CF911F910F9108950F931F93CF93DF93D7
:1014A000082F162FD42FC22F8BE8A0DF112341F075
:1014B00061E070E0011102C060E070E0CB0102C0A9
:1014C00080E090E093DF8D2F91DF8C2F8FDFDF9115
:1014D000CF911F910F910895EBE9F0E0808188236F
:1014E000ECF780919C000895EF92FF920F931F9369
:1014F000CF93DF937C0180919B00882344F4ACE977
:10150000B0E0EBE9F0E08C9180818823E4F38EE891
:101510006DDF86E06BDF87010C5C1F4FE701DCDFCE
:101520008993C017D107D9F7F701948580E0258505
:10153000820F911D95878487968580E02785820F8D
:10154000911D97878687918980E02289820F911D5E
:10155000928B818B938980E02489820F911D948BDB
:10156000838B968980E02789820F911D978B868BCC
:10157000908D80E0218D820F911D918F808F928DB3
:1015800080E0238D820F911D938F828F948D80E058
:10159000258D820F911D958F848F968D80E0278DEC
:1015A000820F911D978F868F90A180E021A1820FDD
:1015B000911D91A380A392A180E023A1820F911D90
:1015C00093A382A342A550E031A520E0240F351F4C
:1015D00036A325A390A980E0840F951F95A784A723
:1015E00092A980E023A9820F911D97A786A794A9AD
:1015F00080E025A9820F911D91AB80AB96A980E078
:1016000027A9820F911D93AB82AB83E290E0A6D80D
:10161000DF91CF911F910F91FF90EF9008950F935D
:101620001F93CF93DF93EC0109E910E080E1F8010B
:10163000808388E180939A0086E080939D0080E813
:10164000D5DE81E8D3DE88E0D1DE84E690E086D87E
:1016500081E2F801808384E8C9DE2FEF47E061E092
:1016600081E01ADFCE0140DFCE013EDFDF91CF9176
:101670001F910F9108955058BB27AA270ED075C10E
:1016800066D130F06BD120F031F49F3F11F41EF49D
:101690005BC10EF4E095E7FB51C1E92F77D180F3F0
:1016A000BA17620773078407950718F071F49EF55F
:1016B0008FC10EF4E0950B2EBA2FA02D0B01B901AE
:1016C00090010C01CA01A0011124FF27591B99F0B8
:1016D000593F50F4503E68F11A16F040A22F232FC4
:1016E000342F4427585FF3CF469537952795A79514
:1016F000F0405395C9F77EF41F16BA0B620B730BBB
:10170000840BBAF09150A1F0FF0FBB1F661F771F2B
:10171000881FC2F70EC0BA0F621F731F841F48F4E0
:10172000879577956795B795F7959E3F08F0B3CF66
:101730009395880F08F09927EE0F97958795089550
:10174000D9D008F481E008950CD00FC107D140F042
:10175000FED030F021F45F3F19F0F0C0511139C1D3
:10176000F3C014D198F39923C9F35523B1F3951B12
:10177000550BBB27AA2762177307840738F09F5FB2
:101780005F4F220F331F441FAA1FA9F333D00E2E21
:101790003AF0E0E830D091505040E695001CCAF78E
:1017A00029D0FE2F27D0660F771F881FBB1F261753
:1017B00037074807AB07B0E809F0BB0B802DBF0126
:1017C000FF2793585F4F2AF09E3F510568F0B6C03F
:1017D00000C15F3FECF3983EDCF386957795679503
:1017E000B795F7959F5FC9F7880F911D96958795D7
:1017F00097F90895E1E0660F771F881FBB1F6217F6
:1018000073078407BA0720F0621B730B840BBA0BB3
:10181000EE1F88F7E095089504D06894B111D9C0FF
:101820000895BCD088F09F5790F0B92F9927B751F1
:10183000A0F0D1F0660F771F881F991F1AF0BA9594
:10184000C9F712C0B13081F0C3D0B1E00895C0C073
:10185000672F782F8827B85F39F0B93FCCF386958A
:1018600077956795B395D9F73EF4909580957095E7
:1018700061957F4F8F4F9F4F0895E89409C097FB64
:101880003EF490958095709561957F4F8F4F9F4F57
:101890009923A9F0F92F96E9BB279395F69587959B
:1018A00077956795B795F111F8CFFAF4BB0F11F45E
:1018B00060FF1BC06F5F7F4F8F4F9F4F16C0882305
:1018C00011F096E911C0772321F09EE8872F762F3B
:1018D00005C0662371F096E8862F70E060E02AF07C
:1018E0009A95660F771F881FDAF7880F9695879568
:1018F00097F90895990F0008550FAA0BE0E8FEEF3D
:1019000016161706E807F907C0F012161306E407C3
:10191000F50798F0621B730B840B950B39F40A26BC
:1019200061F0232B242B252B21F408950A2609F49A
:10193000A140A6958FEF811D811D089597F99F679E
:1019400080E870E060E008959FEF80EC0895002447
:101950000A941616170618060906089500240A9414
:1019600012161306140605060895092E0394000C9A
:1019700011F4882352F0BB0F40F4BF2B11F460FF29
:1019800004C06F5F7F4F8F4F9F4F089557FD905852
:10199000440F551F59F05F3F71F04795880F97FB33
:1019A000991F61F09F3F79F08795089512161306ED
:1019B0001406551FF2CF4695F1DF08C0161617061C
:1019C0001806991FF1CF8695710561050894089551
:1019D000E894BB2766277727CB0197F908958ADF1C
:1019E00008F48FEF08950BD0C0CFB1DF28F0B6DF39
:1019F00018F0952309F0A2CFA7CF1124EACFC6DFB4
:101A0000A0F3959FD1F3950F50E0551F629FF00111
:101A1000729FBB27F00DB11D639FAA27F00DB11D6A
:101A2000AA1F649F6627B00DA11D661F829F2227F3
:101A3000B00DA11D621F739FB00DA11D621F839F7A
:101A4000A00D611D221F749F3327A00D611D231F50
:101A5000849F600D211D822F762F6A2F11249F579E
:101A600050408AF0E1F088234AF0EE0FFF1FBB1FC1
:101A7000661F771F881F91505040A9F79E3F510560
:101A800070F05CCFA6CF5F3FECF3983EDCF3869519
:101A900077956795B795F795E7959F5FC1F7FE2B0B
:101AA000880F911D9695879597F9089597FB072EB6
:101AB00016F4009406D077FD08D017D007FC05D0A7
:101AC0003EF4909581959F4F0895709561957F4F55
:101AD0000895A29FB001B39FC001A39F01D0B29F00
:101AE000700D811D1124911D0895AA1BBB1B51E18E
:101AF00007C0AA1FBB1FA617B70710F0A61BB70B7E
:101B0000881F991F5A95A9F780959095BC01CD0122
:101B100008950F931F93CF93DF93689F8001699F70
:101B2000100D789F100D1124C8010FD0C82FD92F88
:101B3000209729F0A80160E070E08C2F40D1CE0101
:101B4000DF91CF911F910F9108950F931F93CF9322
:101B5000DF938230910510F482E090E0E0914C0D2B
:101B6000F0914D0D20E030E0C0E0D0E023C0408196
:101B7000518148175907A8F04817590761F4828125
:101B80009381209719F09B838A832EC090934D0DEB
:101B900080934C0D29C02115310529F042175307B8
:101BA00010F0A90102C0BE01DF0102811381EF0123
:101BB0009A01F8013097D9F62115310509F1281B52
:101BC000390B2430310590F412968D919C91139726
:101BD0006115710521F0FB019383828304C090930A
:101BE0004D0D80934C0DFD01329644C0FD01E20F76
:101BF000F31F81939193225031092D933C933AC066
:101C000020914A0D30914B0D232B41F4209102017C
:101C10003091030130934B0D20934A0D2091000128
:101C2000309101012115310541F42DB73EB74091A6
:101C3000040150910501241B350BE0914A0DF091F0
:101C40004B0DE217F307A0F42E1B3F0B28173907A3
:101C500078F0AC014E5F5F4F2417350748F04E0F08
:101C60005F1F50934B0D40934A0D8193919302C097
:101C7000E0E0F0E0CF01DF91CF911F910F91089547
:101C8000EF92FF920F931F93CF93DF93009709F486
:101C90008FC0DC01129713961C921E921297E0904F
:101CA0004C0DF0904D0DE114F10489F42D913C910F
:101CB0001197280F391F80914A0D90914B0D821773
:101CC000930789F5B0934B0DA0934A0D71C0E701BE
:101CD00020E030E001C0EA01CA17DB0738F44A818E
:101CE0005B819E0141155105B1F722C0BC016250D4
:101CF0007109FB01D383C28300811181AC01400FC4
:101D0000511F4C175D0761F448815981400F511FE5
:101D10004E5F5F4F518340834A815B81538342838F
:101D20002115310529F4B0934D0DA0934C0D40C001
:101D3000F901B383A283E90169917991C60FD71F95
:101D4000AC17BD0779F4DC015E914E91460F571F29
:101D50004E5F5F4F5183408312968D919C911397F4
:101D600093838283A0E0B0E002C0D7017C01F70139
:101D7000828193810097C9F7C70102962081318142
:101D8000820F931F20914A0D30914B0D2817390770
:101D900079F4109729F410924D0D10924C0D04C057
:101DA00013961C921E921297F0924B0DE0924A0DE0
:101DB000DF91CF911F910F91FF90EF900895DC017B
:101DC00001C06D9341505040E0F70895FB01DC01E4
:101DD0008D91019080190110D9F3990B0895FB01A1
:101DE000DC0101900D920020E1F708950F931F93FD
:101DF000CF93DF93CDB7DEB72E970FB6F894DEBF43
:101E00000FBECDBF8C01CA0146E04C831A83098303
:101E100077FF02C060E070E8615071097E836D83D6
:101E2000A901BC01CE01019619D04D815E8157FDFB
:101E30000AC02F813885421753070CF49A01F80124
:101E4000E20FF31F10822E960FB6F894DEBF0FBE7E
:101E5000CDBFDF91CF911F910F9108952F923F92A7
:101E60004F925F926F927F928F929F92AF92BF92AA
:101E7000CF92DF92EF92FF920F931F93CF93DF9356
:101E8000CDB7DEB72C970FB6F894DEBF0FBECDBF2F
:101E90007C016B018A01FC0117821682838181FF1C
:101EA000B9C188248394912C8C0E9D1EF7019381D7
:101EB000F60193FD859193FF81916F01882309F4C9
:101EC000A5C1853239F493FD859193FF81916F010E
:101ED000853221F4B70190E0CFD1E8CF512C312CDD
:101EE00020E02032A8F48B3261F028F4803251F0E7
:101EF000833271F40BC08D3239F0803349F42160A4
:101F000028C02260246025C0286023C0206121C031
:101F100027FD27C0382F30533A3078F426FF06C00B
:101F2000FAE05F9E300D1124532E13C08AE0389ED4
:101F3000300D1124332E20620CC08E3221F426FD88
:101F400065C1206406C08C3611F4206802C0883652
:101F500041F4F60193FD859193FF81916F01811109
:101F6000C0CF982F9554933018F09052933028F4A6
:101F70000C5F1F4FFFE3F9830DC0833631F08337C9
:101F800071F0833509F05AC022C0F801808189833D
:101F90000E5F1F4F44244394512C540114C0380148
:101FA000F2E06F0E711CF801A080B18026FF03C023
:101FB000652D70E002C06FEF7FEFC5012C8751D116
:101FC0002C0183012C856FE7262E222217C03801B1
:101FD000F2E06F0E711CF801A080B18026FF03C0F3
:101FE000652D70E002C06FEF7FEFC5012C872ED109
:101FF0002C012C8550E8252E222A830123FC1AC0AF
:1020000005C0B70180E290E037D13A94832D90E08B
:1020100048165906B0F30EC0F50127FC859127FE3E
:1020200081915F01B70190E027D131103A94F1E03E
:102030004F1A51084114510479F7E5C0843611F064
:10204000893639F5F80127FF07C0608171818281E7
:1020500093810C5F1F4F08C060817181882777FDD5
:102060008095982F0E5F1F4F4FE6B42EB22297FF38
:1020700009C090958095709561957F4F8F4F9F4FC8
:10208000F0E8BF2A2AE030E0A40122D1A82EA81847
:1020900042C0853731F43FEEB32EB2222AE030E061
:1020A00024C099EFB92EB2228F36B9F020F48835CA
:1020B00009F0ACC00DC0803721F0883709F0A6C008
:1020C00002C020E1B22AB4FE0BC084E0B82A08C0E6
:1020D00024FF09C0E6E0BE2A06C028E030E005C0C3
:1020E00020E130E002C020E132E0F801B7FE07C095
:1020F00060817181828193810C5F1F4F06C0608176
:10210000718180E090E00E5F1F4FA401E1D0A82E06
:10211000A818FFE7BF22B6FE0BC02B2D2E7FA514FB
:1021200050F4B4FE0AC0B2FC08C02B2D2E7E05C0B0
:102130007A2C2B2D03C07A2C01C0752C24FF0DC0E6
:10214000FE01EA0DF11D8081803311F4297E09C062
:1021500022FF06C07394739404C0822F867809F01E
:10216000739423FD13C020FF0EC05A2C731458F42F
:10217000530C5718732C07C0B70180E290E02C87EE
:102180007BD073942C857314B8F304C0731410F4CB
:10219000371801C0312C24FF11C0B70180E390E053
:1021A0002C876AD02C8522FF1CC021FF03C088E544
:1021B00090E002C088E790E0B7010CC0822F8678DB
:1021C00081F021FD02C080E201C08BE227FD8DE29B
:1021D000B70190E051D005C0B70180E390E04CD04A
:1021E0005A94A514C8F3AA94F401EA0DF11DB7019D
:1021F000808190E041D0A110F6CF05C0B70180E208
:1022000090E03AD03A943110F9CF50CEF7012681C0
:10221000378102C02FEF3FEFC9012C960FB6F8941B
:10222000DEBF0FBECDBFDF91CF911F910F91FF9009
:10223000EF90DF90CF90BF90AF909F908F907F9066
:102240006F905F904F903F902F900895FC01059004
:10225000615070400110D8F7809590958E0F9F1FA8
:102260000895FC016150704001900110D8F78095ED
:1022700090958E0F9F1F08950F931F93CF93DF9319
:102280008C01EB018B8181FD03C00FEF1FEF1AC0A2
:1022900082FF0DC02E813F818C819D8128173907D7
:1022A00064F4E881F9810193F983E88306C0E88545
:1022B000F985802F0995892B41F78E819F810196A1
:1022C0009F838E83C801DF91CF911F910F91089555
:1022D000FA01AA27283051F1203181F1E8946F9357
:1022E0006E7F6E5F7F4F8F4F9F4FAF4FB1E03ED0FD
:1022F000B4E03CD0670F781F891F9A1FA11D680F9B
:10230000791F8A1F911DA11D6A0F711D811D911DCD
:10231000A11D20D009F468943F912AE0269F112442
:102320003019305D3193DEF6CF010895462F4770A6
:10233000405D4193B3E00FD0C9F7F6CF462F4F7001
:10234000405D4A3318F0495D31FD4052419302D05F
:10235000A9F7EACFB4E0A695979587957795679505
:10236000BA95C9F700976105710508959B01AC0105
:102370000A2E06945795479537952795BA95C9F72C
:10238000620F731F841F951FA01D0895F894FFCF3F
:1023900000004E0D2000D001333323407D00300279
:1023A00088130100B40037393B3D37393B3D383A9B
:1023B0003C3E383A3C3E090909090909090908085F
:1023C000080808080808393B3D3F393B3D3F3A3C87
:1023D0003E403A3C3E40080808080808080807073D
:1023E0000707070707073B3D3F413C3E40423D3F53
:1023F00041433E4042440707070707070707060611
:10240000060606060606454647483C453D463E4705
:102410003F48373C41460606060606060606050501
:1024200005050505050553746172740025630025D3
:10243000640073656E742062756666657200697407
:1024400065723A25337500466F7277617264005287
:10245000657665727365002573202564206D6D00B7
:0C2460002020202020202000696E630056
:00000001FF
